:020000040800F2
:10000000305100209D010008FF2B0008E92800085E
:10001000FD2B0008810A00081D35000800000000C3
:100020000000000000000000000000003D2D00085E
:100030005D0D000800000000012C00089130000850
:10004000B7010008B7010008B7010008B7010008B0
:10005000B7010008B7010008B7010008B7010008A0
:10006000B7010008B7010008B7010008B701000890
:10007000B7010008B7010008B7010008B701000880
:10008000E90A0008B7010008B7010008B701000835
:10009000B7010008B7010008B7010008B701000860
:1000A000B7010008B7010008B7010008B701000850
:1000B000B7010008B7010008B7010008B701000840
:1000C000B7010008B7010008B7010008B701000830
:1000D000B701000811350008B7010008B701000892
:1000E000B7010008B7010008B7010008B701000810
:1000F000B7010008B7010008B7010008B701000800
:10010000B7010008B7010008B7010008B7010008EF
:10011000B7010008B7010008B7010008B7010008DF
:10012000F50A0008B7010008010B0008B701000834
:10013000B7010008B7010008B7010008B7010008BF
:10014000B7010008B7010008B7010008B7010008AF
:10015000B7010008B70100080D0B0008B70100083F
:10016000B7010008B7010008B7010008B70100088F
:10017000B7010008B7010008B7010008000000003F
:10018000B7010008B7010008DFF80CD000F03CFB15
:1001900000480047115900083051002006488047A8
:1001A00006480047FEE7FEE7FEE7FEE7FEE7FEE75C
:1001B000FEE7FEE7FEE7FEE72931000889010008B7
:1001C0002DE9F05F0546002092469B46884606468C
:1001D000814640241BE0284641464746224600F01F
:1001E0002DFA53465A46C01A914110D3114618466B
:1001F000224600F016F82D1A67EB01084F462246FA
:100200000120002100F00DF817EB00094E41201EDF
:10021000A4F10104DFDC484631462A464346BDE8E6
:10022000F09F202A04DB203A00FA02F100207047F8
:100230009140C2F1200320FA03F319439040704724
:10024000202A06DBCB17203A41FA02F043EAE0739A
:1002500006E041FA02F3D040C2F120029140084387
:1002600019467047D2B201E000F8012B491EFBD2BB
:1002700070470022F6E710B513460A4604461946B1
:10028000FFF7F0FF204610BD2DE9FE4F804681EAC2
:100290000300C00F0C46009021F0004123F0004500
:1002A000B8EB0200A94105D24046214690461C46C3
:1002B0000B46024623F00040104347D0270DC7F3FA
:1002C0000A00C3F30A510290401A019040286BDAE9
:1002D000C3F3130040F4801B0098924620B1002322
:1002E000D2EB030A63EB0B0B01985946C0F14002B5
:1002F0005046FFF796FF06460D4650465946019A6E
:10030000FFF79EFF10EB08006141002487EA1152BD
:1003100084EAE7731A4340D0009A62B3019A012A33
:100320004FEA075215DC001B61EB02014FF000425F
:1003300002EA0752CDE90042001C41F58011324625
:100340002B4600F0D1F903B0BDE8F08F40462146BE
:10035000F9E7001B61EB0201001C41F58013001856
:100360005B412018A2F5001747EB030140EAD57066
:10037000B6196D4111E06D084FEA360645EAC075C1
:100380004FEA0752001B61EB0201001C41F580118E
:1003900049084FEA30000019514132462B4603B05C
:1003A000BDE8F04F00F091B9009801224000002311
:1003B000D0EB020263EBE073009821464FEAE07451
:1003C000B8EB000061EB0401E9E783F000435BE771
:1003D00081F0004158E72DE9FE4F81EA030404F063
:1003E000004421F0004100944FF0000B23F0004343
:1003F00050EA01045ED052EA03045BD0C3F30A540E
:10040000C1F30A552C44A4F2F3340194A0FB025426
:10041000C1F3130141F48011C3F3130343F48013B8
:1004200001FB024400FB034E840A970A44EA81540C
:1004300047EA8357A4FB076802958D0A05FB0785E9
:100440004FEA932C04FB0C542705029D4FEA0658F3
:1004500047EA1637B5EB08056EEB070C870E920ED0
:1004600047EA811742EA8312A7FB0201B6EB0B01B0
:1004700064EB00042B0D43EA0C335E1844EB1C5074
:10048000DA465146E7FB0201C5F313044FEA0B338A
:1004900043EA14534FEA0432019C43EA0603A4F1F1
:1004A0000C040294009CCDE900B400F01DF903B0E7
:1004B000BDE8F08F00200146F9E72DE9F04D81EA13
:1004C000030404F0004B21F0004514464FF0000AED
:1004D00023F0004150EA050220D054EA01021DD069
:1004E000C5F30A570246C5F31303C1F31300C1F362
:1004F0000A5640F4801543F48013A7EB0608101B3E
:10050000D64608F2FD3873EB050002D308F1010866
:1005100001E092185B41B8F1000F03DA00200146B8
:10052000BDE8F08D00204FF48011064684460EE0B1
:10053000171B73EB050705D3121B63EB050306437B
:100540004CEA010C49084FEA300092185B4150EA2E
:100550000107EDD152EA030012D082EA040083EAD7
:100560000501084305D0101BAB4106D20122002330
:1005700006E000224FF0004302E06FF0010253104A
:100580001AEB06004CEB085110EB0A0041EB0B0193
:10059000BDE8F04D00F099B80EB540F2334102913C
:1005A0000021CDE900110A460B4600F09DF803B08A
:1005B00000BD00F0004230F000400AD0C10D01F54E
:1005C0006071C0F3160042EA0151C20840071143AE
:1005D000704700200146704701F0004330B421F01D
:1005E000004150EA010206D00A0DA2F56072C1F383
:1005F0001301002A02DC30BC00207047440F44EA9B
:10060000C104C100E01830BC00EBC25000F026B8B5
:1006100030B50B46014600202022012409E021FAD2
:1006200002F59D4205D303FA02F5491B04FA02F5CF
:100630002844151EA2F10102F1DC30BD202A04DBA2
:10064000203A21FA02F00021704721FA02F3D0404B
:10065000C2F1200291400843194670470029A8BF03
:100660007047401C490008BF20F00100704710B4DB
:10067000B0FA80FC00FA0CF050EA010404BF10BC90
:10068000704749B1CCF1200421FA04F411FA0CF1BD
:1006900018BF012121430843A3EB0C01CB1D4FEAF6
:1006A00000614FEA102042BF002010BC704700EBF1
:1006B000C35010440029A4BF10BC7047401C49001F
:1006C00008BF20F0010010BC704710B5141E73F174
:1006D000000408DA401C41F1000192185B411A4302
:1006E00001D120F0010010BD2DE9F04D92469B464E
:1006F00011B1B1FA81F202E0B0FA80F220329046F4
:10070000FFF78FFD04460F4640EA0A0041EA0B015D
:1007100053465A46084313D0114653EA010019D0F4
:10072000C8F140025046FFF789FF05460E46504685
:1007300059464246FFF775FD084305D0012004E005
:1007400020463946BDE8F08D0020054346EAE076B4
:100750002C4337430A986305E40AA0EB0800002203
:10076000FD0A44EA47540A3002D500200146E9E771
:10077000010510196941DDE9084500196941BDE825
:10078000F04DA2E70EB5C10F80EAE0700844CA0739
:10079000002140F233438DE80E000A460B46FFF776
:1007A000A3FF03B000BDC1F30A52C1F3130140F22D
:1007B000FF3341F480119A4202DA0020014670476B
:1007C00040F233439A42A2F2334202DC5242FFF734
:1007D00035BFFFF726BD000030B5041E71F10004DF
:1007E00004DB4FF00044404264EB0101141E73F13E
:1007F000000405DB1C464FF00043524263EB040348
:10080000994208BF904230BD064C074D06E0E068B3
:1008100040F0010394E8070098471034AC42F6D347
:10082000FFF7B6FC609000088090000870B5C1F337
:100830000A5201F000450024C1F3130140F2FF33D6
:1008400041F480119A4201DA002070BD40F2334336
:100850009A42A2F2334203DC5242FFF7EFFE00E07D
:1008600090402C43F1D0404270BD70B58D1810F807
:10087000014B14F0030201D110F8012B231106D112
:1008800010F8013B03E010F8016B01F8016B521EF8
:10089000F9D1ABB110F8012B04F00C048A1A0C2C1E
:1008A00003D0A2EB84129B1C08E010F8014BA2EBD2
:1008B0000422F8E712F8014B01F8014B5B1EF9D551
:1008C000A942D4D3002070BD10B50146806B026CE4
:1008D00012F0500F05D0026CD20626D500F0C5FBF1
:1008E00010BD016C41F40071016401688A6812F066
:1008F000405F17D1027EAAB9CA6A12F4700F02D003
:100900008A6852050ED44A6822F020024A60016CBF
:1009100021F480710164016CC90403D4016C41F0BD
:100920000101016400F094FB10BD806BC26CBDE856
:1009300010400846104710B5806B40210164416C9F
:1009400041F00401416400F090FB10BD10B5806BD4
:1009500000F08AFB10BD0000464910B54A6822F439
:1009600040324A604A6843681A434A6001684A68EC
:1009700022F480724A6001684A68036942EA0322ED
:100980004A6001684A6822F040724A6001684A6819
:1009900083681A434A6001688A6822F400628A60A8
:1009A00001688A68C3681A438A60816A6FF070625E
:1009B000D14201688A6822F070628A6001688A68A0
:1009C0000CD0836A1A438A6001688A6822F0405218
:1009D0008A6001688A68C36A1A4301E022F04052C3
:1009E0008A6001688A6822F002028A6001688A6867
:1009F000037E42EA43028A6090F8201000290168D1
:100A00004A680FD042F400624A6001684A6822F4E2
:100A100060424A6001684A68174C436A04EB4333FA
:100A20001A4301E022F400624A600168CA6A22F4B3
:100A30007002CA620168CA6A838B104C04EB0353CC
:100A40001A43CA6201688A6822F400728A600168E7
:100A50008A6890F8303042EA43228A6001688A68E6
:100A600022F480628A6001688A68406942EA8020D4
:100A7000886010BD0023014000E0FFFF0000F0FF90
:100A8000FEE710B5846B204600F072FC0120207157
:100A900010BD10B5846B204600F040FC0120207191
:100AA00010BD10B5846B206940F004002061204621
:100AB00000F060FC0120207110BD10B5846B20692E
:100AC00040F004002061204600F02AFC0120207143
:100AD00010BD10B5806B00F04CFC10BD10B5806BE4
:100AE00000F01DFC10BD0000014800F09DBD00009D
:100AF000A84A0020014800F097BD0000344A0020B9
:100B0000014800F091BD0000284C0020014800F091
:100B10008BBD0000884C002001681823CAB2103A2F
:100B2000B2FBF3F2054B6FF30901032A9B5CC3652B
:100B300000D9091D81650846704700004060000823
:100B400010B5014600208B698A6A4FF0C07453B11A
:100B5000B3F5005F15D072B1012A0CD0022A0AD079
:100B6000032A09D104E01AB1012A06D0022A03D1CE
:100B7000C96AC90100D5012010BDC96AA142FAD0D5
:100B800010BD002AF7D0012AF2D0022AF3D0032A9E
:100B9000F3D010BD30B50468256825F480252560A4
:100BA000046863608368402B036803D09960006821
:100BB000C26030BD9A600068C16030BDF8B526A043
:100BC00002F0AEFC2D482E4D2E4C13212A6800EB6E
:100BD0008203D3ED000A00EB810393ED000AF4EEEB
:100BE000C00AF1EE10FA02D2226029600CE02368FC
:100BF00000EB8303D3ED000AF4EEC00AF1EE10FA25
:100C000002D2914200D02160491C6529DEDD2268B4
:100C100029688A4201DA2A6021602E6800EB860189
:100C200091ED000A184981ED000A236800EB83006A
:100C300090ED000A154880ED000A304605F02CF8CA
:100C40002860184605F028F820600090314610A072
:100C50002A6802F065FCF8BD2F2A3D3D3D3D3D3D33
:100C60003D3D3D646966666572656E743D3D3D3D22
:100C70003D3D3D3D3D3D2A2F0D0A00005C280020F2
:100C800014000020180000200400002008000020AC
:100C900077617665315F696E6465782025642074BC
:100CA0006F2025642C77617665325F696E646578A4
:100CB00020256420746F2025640D0A0010B515A04E
:100CC00002F02EFC1C491D4B13201A6801EB820216
:100CD00092ED000A01EB8002D2ED000AB4EEE00AC8
:100CE000F1EE10FA00D21860401C6528EDDD1C689A
:100CF00001EB840090ED000A114880ED000A2046C7
:100D000004F0CAFF186021460246BDE810400DA05D
:100D100002F006BC2F2A3D3D3D3D3D3D3D3D3D3D64
:100D200073616D653D3D3D3D3D3D3D3D3D3D3D3D41
:100D30003D2A2F0D0A0000005C280020140000202E
:100D400004000020776176655F696E646578202510
:100D50006420746F2025640D0A000000704772B68D
:100D6000FEE700002DE9F04127A02DED028B02F0F7
:100D7000D7FB2CA002F0D4FB04F014FF30A002F04B
:100D8000CFFB012300223549354803F0ACFF4FF477
:100D900000752A463349314804F0E6FAA8462F4F39
:100DA000314E324D9FED328A002400BF07EBC40064
:100DB000D0ED000A90ED010AB0EEE01A11EE100A33
:100DC000B04208DAB0EEC01A11EE100AB04202DAF0
:100DD0009FED280A01E002F0EFFB05EB840080EDB7
:100DE000000A05EB8400641C90ED000A444520EEE7
:100DF000080A80ED000AD9DBBDEC028B1EA0BDE81D
:100E0000F04102F08DBB00000D0A3D3D3D3D3D200F
:100E1000464654205354415254203D3D3D3D3D0DE6
:100E20000A0000000D0A3D3D3D3D3D204144432068
:100E30005354415254203D3D3D3D3D0D0A000000BC
:100E40000D0A3D3D3D3D3D20414443204F56455216
:100E5000203D3D3D3D3D0D0A000000005C080020A6
:100E6000708E00085C280020BD3786355C4000206D
:100E7000E02E6542000000003D3D3D3D3D204646E0
:100E80005420454E44203D3D3D3D3D0D0A000000AF
:100E900030B51B4C00FB01F304EB83050A4695EDCE
:100EA000000A642B17DC032900D104229B1A921E2E
:100EB00000FB01209B1C0BE004EB8301D1ED000A39
:100EC000F4EEC00AF1EE10FA01DBB0EE600A5B1C32
:100ED0009842F1DC30BD421E4A43401C48430BE0BF
:100EE00004EB8201D1ED000AF4EEC00AF1EE10FA33
:100EF00001DBB0EE600A521C9042F1DC30BD000014
:100F00005C28002078B50024009490F83C20012A49
:100F100019D0012280F83C200A6807230568092AB5
:100F200013D9EE680A3A02EB420293409E43EE6008
:100F30000B788A680A3B03EB43039A400368DD6839
:100F40002A43DA6010E0022078BD2E6902EB4202EB
:100F500093409E432E610B788A6803EB43039A40CB
:100F600003681D692A431A614A681F23072A13D29E
:100F700005686E6B521E02EB820293409E436E63C5
:100F80000B790A885B1E92B203EB83039A400368D5
:100F90005D6B2A435A6327E005680D2A12D22E6B37
:100FA000D21F02EB820293409E432E630B790A8884
:100FB000DB1F92B203EB83039A4003681D6B2A4345
:100FC0001A6311E0EE6A0D3A02EB820293409E43EF
:100FD000EE620B790A880D3B92B203EB83039A40D1
:100FE0000368DD6A2A43DA62164B0568144A9D429B
:100FF00006D10D68122D03D1556845F48005556062
:1010000005689D4218D10B68102B01D0112B13D10C
:10101000536843F400035360096810290CD10A494E
:101020000A4A0968B1FBF2F101EB8101490000E0D5
:10103000491E00910029FBD180F83C40002078BD7A
:1010400000230140002001405408002040420F00CE
:101050000349884202D1034901200870704700000B
:10106000EC490020000000207047704770B5040074
:101070004FF0000503D0206C002610B107E00120DE
:1010800070BD204600F01CF8666484F83C60206C5B
:10109000C00610D4206C20F4885040F00200206478
:1010A0002046FFF759FC6664206C20F0020040F0F7
:1010B0000100206400E0012584F83C60284670BDF2
:1010C00070B586B0064614216846FFF7D2F81D4970
:1010D0003068884233D11C480025016841F4807192
:1010E0000160006800F480700590174814380168AA
:1010F00041F0010101600068694600F001000590BF
:10110000082000900320CDE90105104800F0FEFB07
:10111000104C0F48C4E900050015A560C4E9035050
:10112000400060618000C4E90605256220466562D2
:1011300000F04AFB08B1FFF712FEB463A66306B0E5
:1011400070BD000000200140443802400000024011
:1011500010640240344A0020F8B50E4600210446CF
:10116000009190F83C0013460A46012807D0012060
:1011700084F83C0020688568ED0702D011E0022069
:10118000F8BD856845F0010585604048404D006820
:10119000B0FBF5F000EB400000E0401E009000289E
:1011A000FBD120688568ED0503D5856825F4807539
:1011B000856020688568ED075DD0226C40F201658E
:1011C000AA4342F4807222644068400505D5206C31
:1011D00020F4005040F480502064206CC00404D5FA
:1011E000606C20F00600606400E0616484F83C10EC
:1011F000A16B2948274DC863A16B28480864A16BDF
:101200002748C86421686FF02200086020684168A0
:1012100041F0806141602068816841F480718160A3
:10122000216832464C31A06B00F038FB02466868FA
:101230001C49C006206806D0884224D1816811F07C
:10124000405F13D01FE08842F8D0174B984203D17B
:10125000D1F80433DB06F1D0144B984213D1D1F806
:10126000041301F01F011029E8D30CE0816841F05C
:101270008041816007E0206C40F010002064606CC9
:1012800040F0010060641046F8BD000054080020E2
:1012900040420F0000230140C90800084D09000822
:1012A00037090008002001400021014000220140D0
:1012B00010B50446002094F83C1001290CD00121FF
:1012C00084F83C1021688A6822F001028A60216853
:1012D0008A68D20702D01DE0022010BD8A6822F47D
:1012E00080728A60A16B91F83520022A07D10846E6
:1012F00000F03FF918B1216C41F0400121642168F0
:101300004A6822F080624A60216C21F4885141F0E1
:1013100001012164002184F83C1010BD7047704722
:10132000704770B500B3F9B14379012B1ED0012687
:1013300046710223037105682C6802F0100340F621
:10134000FE729A409443D1E900210A439A40224315
:101350002A6001680A68C0249C40A2430A600671A2
:1013600000214171084670BD012070BD022070BD92
:1013700070477047704770B5040003D0207900258E
:1013800010B105E0012070BD6571204600F008F83D
:1013900002202071256101202071002070BD000015
:1013A00070B586B0054614216846FEF762FF1F49F6
:1013B0002868884237D11E480026016841F0005154
:1013C0000160006800F0005005901948103801686D
:1013D00041F0010101600068694600F001000590DC
:1013E000102000900320CDE90106124800F08EFA8B
:1013F000124C114820604FF0606060604020C4E9EA
:10140000020600012061400060618000A06140117F
:10141000C4E907062046666200F0D6F908B1FFF776
:101420009EFCAC60A56306B070BD00000074004077
:10143000403802400000024088600240A84A002074
:101440002DE9F0410400069817460D461BD061793E
:1014500001291BD00126667102212171C5B1E26804
:101460002949D163E26829491164E2682849D164B5
:1014700021680A6842F080520A6040B3226804285A
:1014800028D01C3227E00120BDE8F0810220FBE7D4
:10149000A2682049D163A2681F491164A2681F494C
:1014A000D16421680A6842F480520A6020B122683F
:1014B000042804D0103203E02268083200E00C3225
:1014C0002068016841F400510160A06809E02268C9
:1014D000143200E018322068016841F000510160C8
:1014E000E068394600F0DAF90021617120B1216924
:1014F00041F004012161C7E721680A6805F0100383
:101500009E4032430A60BFE7930A0008DD0A0008E4
:10151000BB0A0008830A0008D30A0008A30A0008CF
:1015200070B504001BD02068036801F010024FF46E
:1015300080559540AB43036020680368012505FA98
:1015400002F29343036061B1E06800F012F8206892
:10155000016821F0005101602571002070BD01205B
:1015600070BDA06800F005F82068016821F4005102
:10157000F1E72DE9F0410446876D00F0C5FA064613
:1015800094F835000025022806D08020606584F894
:1015900034500120BDE8F0812068016821F0160177
:1015A00001602068416921F080014161206C08B927
:1015B000A06C20B12068016821F00801016020685A
:1015C000016821F0010101600CE000F09DFA801B30
:1015D000052807D920206065032084F8350084F8A9
:1015E0003450D7E720680068C007EED194F85C104B
:1015F0003F208840B860012084F8350084F83450DA
:101600000020C7E790F83510022903D080214165FA
:1016100001207047052180F835100068016821F02D
:1016200001010160002070472DE9F84304464FF0A6
:101630000009CDF8009063484FF41651A56D00687D
:10164000B0FBF1F72E6894F85C10082000FA01F165
:1016500031420FD021680A6852070BD50A6822F080
:1016600004020A6094F85C108840A860606D40F045
:101670000100606594F85C104FF0010808FA01F071
:10168000304208D021684969090604D5A860606D18
:1016900040F00200606594F85C10042088403042FD
:1016A00008D021680968890704D5A860606D40F0FA
:1016B0000400606594F85C1010208840304218D017
:1016C00021680968090714D5A860206801684903E2
:1016D00004D50068000308D5A16C07E00168C905BE
:1016E00003D4016821F008010160216C09B1204692
:1016F000884794F85C1020208840304231D021681F
:101700000968C9062DD5A86094F835000528206819
:10171000016806D0490347D5006800031DD4616CF9
:101720001CE021F0160101602068416921F0800170
:101730004161206C08B9A06C20B12068016821F0DB
:101740000801016094F85C103F208840A86084F88C
:10175000358084F83490216D1FE0E16B09B120469B
:101760008847606D00282BD0606DC00714D005201D
:1017700084F835002068016821F0010101600098BB
:10178000401C0090B84203D820680068C007F6D11A
:1017900084F8358084F83490E16C002910D001B0D1
:1017A0002046BDE8F04308470168C905D5D4016863
:1017B00021F01001016084F8358084F83490CCE782
:1017C000BDE8F883540800202DE9F041044600F0FC
:1017D0009BF906465CB1022084F83500002584F8A8
:1017E00034502068016821F0010101600DE0012002
:1017F000BDE8F08100F088F9801B052805D920207C
:101800006065032084F83500F2E720680068C007AF
:10181000F0D12268116820480140D4E9010318433F
:10182000D4E903363343184363691843A369184363
:10183000E3691843236A18430843616A042903D102
:10184000D4E90B1319430843106020684069666AA5
:1018500020F0070130460E43012704280CD1A06A6E
:101860000643E06A40B12046FFF76AF920B1402004
:10187000606584F83570BAE7206846612046FFF756
:101880004BF994F85C203F2191408160656584F8B4
:1018900035700020ACE700003F8010F02DE9F041EA
:1018A0000446866D90F83400002501280DD00120F3
:1018B00084F8340094F835700020012F07D084F8A4
:1018C000340002252846BDE8F0810220FBE702270C
:1018D00084F8357060652046FFF75CF994F85C1079
:1018E0003F208840B0602068016841F01601016027
:1018F000206C20B12068016841F008010160206877
:10190000016841F001010160DCE700002DE9F84FBA
:10191000DFF8BCA10022012503264FF00F090AF1D0
:10192000040BAAF1040E00BF0B6805FA02F4234071
:10193000A34270D10F7907F00307012F01D0022FC6
:1019400016D187684FEA420806FA08FC27EA0C0716
:10195000D1F80CC00CFA08FC4CEA070CC0F808C01F
:101960004768A7430C79C4F3001494403C43446097
:101970000C79E443A4070AD0C4684FEA420C06FA83
:101980000CF7BC438F6807FA0CF72743C7600C7944
:1019900004F00304022C12D1D40800EB840CDCF810
:1019A00020405707FF0E09FA07F824EA0804D1F887
:1019B000108008FA07F848EA0408CCF82080046888
:1019C0004FEA420C06FA0CF7BC430F7907F0030705
:1019D00007FA0CF7274307604C6814F4403F70D0B7
:1019E0003C4C276847F480472760246822F00307AF
:1019F00004F480440094384C07EB040CDCF80848ED
:101A000097074FEA177809FA08F7BC43334FB842F3
:101A100002D1002724E054E0314FB84201D1012720
:101A20001EE0304FB84201D1022719E02E4FB842D4
:101A300001D1032714E02D4FB84201D104270FE054
:101A40002B4FB84201D105270AE02A4FB84201D1F5
:101A5000062705E0284FB84201D1072700E00827F4
:101A600007FA08F72743CCF80878DAF80040574619
:101A7000D1F804C09C435FEACC2C00D51C433C60E9
:101A8000DBF800405F46D1F804C09C435FEA8C2C31
:101A900000D51C433C60DEF800407746D1F804C016
:101AA0009C435FEA8C3C00D51C433C60084F083FD8
:101AB0003C68D1F804C09C435FEACC3C00D51C4391
:101AC0003C60521C102AFFF42FAFBDE8F88F0000D5
:101AD000083C014044380240003001400000024010
:101AE0000004024000080240000C024000100240C6
:101AF0000014024000180240001C02400AB181613B
:101B000070470904FBE70000014880687047000047
:101B100048080020024881680278114481607047BB
:101B2000480800200B4810B5016841F400710160BD
:101B3000016841F480610160016841F480710160D5
:101B4000032000F06FF80F2000F006F800F024F8F2
:101B5000002010BD003C024070B50D4D04464FF40E
:101B60007A712878B1FBF0F00A490968B1FBF0F00E
:101B700000F00CFB48B9102C07D200222146501E61
:101B800000F030F800206C6070BD012070BD0000D6
:101B900048080020540800200A4808B5016841F4AC
:101BA00080410160006800F4804000900548001FFB
:101BB000016841F080510160006800F080500090A1
:101BC00008BD000044380240002809DB00F01F0275
:101BD000012191404009800000F1E020C0F800118F
:101BE00070470000F0B40E4B1B680C46C3F3022391
:101BF000C3F10705042D00D90425191D072901D2B9
:101C0000002300E0DB1E012606FA05F1491E2140F3
:101C100099409E40761E16403143F0BC01F0BBBC9B
:101C20000CED00E0064900F0070208684FF6FF03DC
:101C3000184040EA0220034A104308607047000041
:101C40000CED00E00000FA052DE9F0470E46050016
:101C500065D0DFF81481D8F80000F7B200F0070073
:101C6000B04207D288F80070D8F8000000F00700F2
:101C7000B04254D128683D4C810712D5400703D5A6
:101C8000206840F4E05020602878000703D52068E1
:101C900040F4604020602068A96820F0F00008430C
:101CA00020602878C0072DD030496868083901289D
:101CB00012D0022813D0032811D0096889070029FF
:101CC0002DDA216821F0030101432160FFF71CFF99
:101CD000814641F2883A0EE009688903EFE7096816
:101CE0008901ECE7FFF710FFA0EB0901514502D98C
:101CF0000320BDE8F0872068696800F00C00B0EBB5
:101D0000810FEFD1D8F80010404601F00701B14231
:101D100007D90770006800F00700B04201D0012029
:101D2000E7E72878400705D52068E96820F4E05007
:101D3000084320602878000706D52068296920F428
:101D4000604040EAC100206000F038F82168084A8D
:101D5000C1F30311515CC840064908600648006899
:101D6000FFF7FAFE0020C4E7003C024008380240BA
:101D700048600008540800204C0800200448054929
:101D800000680968044AC1F38221515CC840704769
:101D900054080020083802405860000804480549EB
:101DA00000680968044AC1F34231515CC840704779
:101DB000540800200838024058600008154810B543
:101DC000006810F00C02144813D01449042A0FD0F4
:101DD000082A0ED10F4C241F2268236802F03F020C
:101DE0005B0207D52068C0F38810A0FB010106E064
:101DF000084610BD2168C1F38811A1FB0001002332
:101E0000FEF7DEF92168C1F30141491C4900B0FB2E
:101E1000F1F010BD083802400024F40040787D0144
:101E20002DE9F84F04006ED02078DFF84C93C007FE
:101E3000A9F104054AD009F104000168C1F3810148
:101E4000012908D00068C0F3810002280AD1D9F81E
:101E50000000400206D52868800337D56068002856
:101E6000E1D033E06068B0F5803F10D0B0F5A02F2E
:101E7000286810D020F480302860286820F4802062
:101E800028606068A8B1FFF73FFE06460DE02868AD
:101E900040F48030F4E740F480202860F7E700BF8A
:101EA000FFF732FE801B642873D828688003F7D5BB
:101EB0000CE0FFF729FE064605E000BFFFF724FE11
:101EC000801B6428F0D828688003F7D42078DFF8D6
:101ED000AC8280074FF0000A3ED5A748001D01687C
:101EE00011F00C0F08D00068C0F3810002280BD15C
:101EF000D9F80000400207D42868800716D5E068AA
:101F0000012800D112E033E1E068B8B10120C8F83F
:101F10000000FFF7F9FD064605E000BFFFF7F4FDFE
:101F2000801B0228C0D828688007F7D52868216957
:101F300020F0F80040EAC10028600DE0C8F800A0D9
:101F4000FFF7E2FD064604E0FFF7DEFD801B0228F6
:101F50001FD828688007F7D42078000722D5864F3D
:101F600087486169703771B101210160FFF7CCFDCD
:101F7000064604E0FFF7C8FD801B022809D8386830
:101F80008007F7D50EE0C0F800A0FFF7BDFD0646BC
:101F900005E082E0FFF7B8FD801B02287DD8386895
:101FA0008007F7D42078400768D5DFF8CCB1002748
:101FB0000BF13C0BDBF80000C0000BD4DBF8001089
:101FC00041F08051CBF80010DBF80000012700F051
:101FD000805000906B4E3068C00510D4306840F4DB
:101FE00080703060FFF790FD009005E0FFF78CFDFA
:101FF0000099401A022850D83068C005F6D55E4EC8
:10200000A0686C3601280FD00528306810D020F069
:1020100001003060306820F004003060A068B8B182
:10202000FFF772FD00900FE0306840F00100F4E728
:1020300040F004003060F7E7FFF766FD0099411AB1
:1020400041F28830814266D830688007F4D50EE0CE
:10205000FFF75AFD009007E0FFF756FD0099411A7F
:1020600041F28830814256D830688007F4D42FB1CD
:10207000DBF8001021F08051CBF80010A069C8B344
:102080003D49091D0968C1F3810102294AD002288E
:10209000504607D0C8F8600000E03CE0FFF734FD90
:1020A00004463BE04746C8F86000FFF72DFD0646B2
:1020B00005E000BFFFF728FD801B02282BD8286809
:1020C0008001F7D4D4E907010843A16A2E4A4908E0
:1020D00002EB0141626A41EA8211084394F82C1034
:1020E00040EA0161C9F8001001203866FFF70CFDD5
:1020F000044606E03EE000BFFFF706FD001B022895
:1021000009D828688001F7D534E000BFFFF7FCFC50
:10211000001B022802D90320BDE8F88F286880013F
:10212000F4D427E00128F7D0D9F80000E26900F4E0
:10213000800191421CD1226A00F03F01914217D1E7
:1021400047F6C071626A0140B1EB821F10D1A26AEA
:102150004FF0FF3300F4403103EB5202B1EB024F7A
:1021600006D194F82C1000F07060B0EB016F01D034
:102170000120D1E70020CFE70438024000004742A9
:10218000800E4742007000400000FFFF10B5401E67
:10219000B0F1807F01D3012010BD4FF0E0246061D9
:1021A0000F21601701F0F7F90020A06107202061DE
:1021B000002010BD70B590F83C20012A32D00124D7
:1021C00080F83C40022280F83D2003685A689D68F0
:1021D00022F070060A6832435A60134B02689A4232
:1021E00014D0B2F1804F11D0104B9A420ED0104B48
:1021F0009A420BD00F4B9A4208D00F4B9A4205D00F
:102200000E4B9A4202D00E4B9A4204D1496825F0F7
:1022100080031943916080F83D40002180F83C1014
:10222000084670BD022070BD00000140000400405F
:1022300000080040000C0040000401400040014044
:102240000018004010B5040003D094F83D0010B110
:1022500007E0012010BD002084F83C00204600F07B
:102260001FF8022084F83D00211D206800F064FF63
:10227000012084F8460084F83E0084F83F0084F88A
:10228000400084F8410084F8420084F8430084F858
:10229000440084F8450084F83D00002010BD000093
:1022A00008B501681148B1F1804F0BD0104A914236
:1022B00010D1016841F002010160006800F00200E5
:1022C000009008BD016841F001010160006800F064
:1022D0000100F5E7074A9142F3D1016841F004019A
:1022E0000160006800F00400EAE7000040380240A6
:1022F000000400400008004090F83D10012901D082
:1023000001207047022180F83D1000681149884281
:1023100014D0B0F1804F11D00F4988420ED00F4930
:1023200088420BD00E49884208D00E49884205D019
:102330000D49884202D00D49884204D1816801F0DC
:102340000701062903D0016841F001010160002066
:1023500070470000000001400004004000080040F9
:10236000000C004000040140004001400018004003
:1023700001680A6A41F211131A4207D10A6A9B10D6
:102380001A4203D10A6822F001020A60012180F892
:102390003D100020704770B5044690F83C000025C1
:1023A000012817D0012684F83C60022084F83D0003
:1023B0002068826822F0770222F47F4282600868F7
:1023C000502838D00DDC20284FD005DC90B31028E1
:1023D00011D14AE0022070BD302846D040280AD1F1
:1023E0003BE060282FD070280DD0B0F5805F03D07F
:1023F000B0F5005F12D0012584F83D60002084F81C
:102400003C00284670BDCB68D1E90121206800F06E
:10241000FBFE2068816841F0770109E0CB68D1E9D3
:102420000121206800F0F0FE2068816841F48041BD
:102430008160E1E719E0CA684968206800F0F6FEAB
:102440005021206806E0CA684968206800F0FFFE55
:102450006021206800F0E2FECEE7CA684968206883
:1024600000F0E4FE40212068F4E7226801461046AF
:10247000F0E7704770470000F8B501680446086847
:10248000CA684B6910F00F0F4FF0000559D003F0E8
:10249000010602F49077374365D0C10705D0D10516
:1024A00003D5616C41F001016164410705D5D9078D
:1024B00003D0616C41F002016164810705D5D90741
:1024C00003D0616C41F004016164010707D502F09B
:1024D0002001314303D0616C41F008016164616CFB
:1024E00000293AD0800604D5900602D5204600F097
:1024F000EEFE20684069616CC0F38010090700D4CB
:1025000060B3204600F0BCFE20684069400621D53B
:102510002068143050E8001F21F0400140E800120C
:10252000002AF5D1E06BA8B172490165E06BFFF7B5
:1025300069F8002811D0E06B016D01B0BDE8F040F2
:10254000084783060FD593060DD52046BDE8F84011
:1025500000F0BDBE2046FFF78DFFF8BD2046FFF717
:1025600089FF6564F8BD266B2023012E7ED1C60647
:102570007CD5D6067AD508684868009048694FF03F
:10258000020640064DD5E26B106840684FF4807734
:102590000004000C3AD0A18D814237D9E085D06982
:1025A000B8422DD020680C3050E8001F21F4807113
:1025B00040E80012002AF5D12068143050E8001FCE
:1025C00021F0010140E80012002AF5D12068143002
:1025D00050E8001F21F0400140E80012002AF5D128
:1025E00084F84230256320680C3050E8001F21F049
:1025F000100140E80012002AF5D1E06BFEF7B9FFA8
:102600006663A08DE18D401A81B206E0A18D814202
:10261000A8D1D069B842A5D166632046FFF729FF4B
:10262000F8BDA08DE18D401A81B2E08D0028F7D071
:102630000029F5D020680C3050E8002F22F4907269
:1026400040E80027002FF5D12068143050E8002F13
:1026500022F0010240E80027002FF5D184F8423033
:10266000256320680C3050E8002F00E006E022F0DF
:10267000100240E80023002BF3D1CDE705062BD54F
:10268000150629D594F841002128C9D1A068B0F5D4
:10269000805F01D12069B0B1206A411C21622168AC
:1026A00000784860E08C401E0004000CE084B7D144
:1026B0002068C16821F08001C1602068C16841F0D4
:1026C0004001C160F8BD206A0088C0F3080048607E
:1026D000206A801C2062E5E74006F3D55006F1D55C
:1026E000CA68204622F04002CA6084F8413000F0F7
:1026F000FAF8F8BD7332000870B5040004D094F8FD
:102700004100002510B106E0012070BD84F8405062
:10271000204600F023F8242084F841002068C16896
:1027200021F40051C160204600F032FE20680169AA
:1027300021F4904101612068416921F02A01416141
:102740002068C16841F40051C1606564202084F8AC
:10275000410084F842006563002070BD2DE9F0411E
:1027600086B0064614216846FDF783FD304930687F
:10277000884259D12F480024016841F010010160BE
:10278000006800F0100005902A481438016841F0F4
:10279000010101600068694600F0010005904FF4F6
:1027A000C06000900220CDE90104032003900720BF
:1027B00004902148FFF7AAF8214D20484FF0006708
:1027C0002860C5E901744FF48068C5E903486C616D
:1027D000AC61EC612C6228466C62FEF7F5FF08B133
:1027E000FEF7BDFAF563AE63154D144860357830D9
:1027F000E5E802074020A5E81101114845F8144911
:102800006030AC61EC612C626C62FEF7DDFF08B1F8
:10281000FEF7A5FAB563002211462520AE63FFF747
:10282000E1F92520FFF7D0F906B0BDE8F0810000FE
:102830000010014044380240000002404064024061
:10284000284C002070472DE9F843044690F84100D9
:10285000984616460D46202802D00220BDE8F8838F
:1028600085B17EB100206064212084F84100FFF72B
:102870004BF9A6848146E684A0682027B0F5805FE6
:1028800002D003E00120E9E7206910B12E460025BF
:102890000EE000260CE08021204600F0FFFDA8B9E4
:1028A000C6B116F8010B21684860E08C401EE08438
:1028B000E08C4B464FF00002CDF800800028EAD1B2
:1028C0004FF04001204600F0E9FD40B184F841702E
:1028D0000320C3E735F8020BC0F30800E3E784F8F0
:1028E00041700020BAE77047FEE700007FB5002482
:1028F00016480094019402941349039401604FF424
:102900008031C0E901140461047680F82040090395
:10291000C1620125C5614910C460816280F8304000
:102920004561FEF7A3FB08B1FEF719FA0320CDE9D4
:102930000005694602940548FEF7E4FA002801D034
:10294000FEF70DFA7FBD000000200140EC49002099
:102950001CB500240C4900940A48019408600846FC
:10296000FEF709FD08B1FEF7FAF900940022694666
:1029700005480194FEF7D5FC002801D0FEF7EFF9D9
:102980001CBD000000740040944A0020194808B59E
:10299000016841F480010160016801F48001009147
:1029A000016841F4001101600068002200F4001089
:1029B000009011461020FFF715F91020FFF704F9D9
:1029C000002211463820FFF70DF93820FFF7FCF8F8
:1029D000002211463A20FFF705F93A20FFF7F4F8F4
:1029E000002211464620FFF7FDF8BDE808404620CA
:1029F000FFF7EAB830380240F0B587B014216846D6
:102A0000FDF737FC21480024016841F08001016096
:102A1000016801F080010591016841F00101016048
:102A2000016801F001010591016841F004010160B4
:102A3000016801F004010591016841F002010160A3
:102A40000068134E00F0020005900022202130465D
:102A5000FFF754F80F4F002204213846FFF74EF8D5
:102A6000202000900125CDE90154694630460394A9
:102A7000FEF74CFF04200090CDE90154694638462A
:102A80000394FEF743FF07B0F0BD0000303802406A
:102A9000000802400004024010B586B00024164829
:102AA000009401940294039404944FF0804105949F
:102AB000C0E900140921C0E9024104618461FFF703
:102AC000C1FB08B1FEF74BF94FF480500090694606
:102AD0000948FFF760FC08B1FEF741F92020CDE975
:102AE000040404A90448FFF765FB002801D0FEF7A1
:102AF00036F906B010BD0000084B002010B586B0B6
:102B000000241648009401940294039404941249FA
:102B10000594C0E900145121C0E9024104618461B7
:102B2000FFF790FB08B1FEF71AF94FF480500090C0
:102B300069460A48FFF72FFC08B1FEF710F920207C
:102B4000CDE9040404A90548FFF734FB002801D0AF
:102B5000FEF705F906B010BD00040040504B002000
:102B600010B586B000241648009401940294039492
:102B7000049412490594C0E900140921C0E90241F6
:102B800004618461FFF75EFB08B1FEF7E8F84FF4DB
:102B90008050009069460A48FFF7FDFB08B1FEF738
:102BA000DEF82020CDE9040404A90548FFF702FB64
:102BB000002801D0FEF7D3F806B010BD0008004091
:102BC000984B00200C4810B50A4901604FF4E131E0
:102BD0004160002181600C22C160C0E90412816162
:102BE000C161FFF789FD002803D0BDE81040FEF762
:102BF000B6B810BD00100140E04B0020FEE7FEE734
:102C00007047000080ED030AC0ED040A30EE600A50
:102C10002C4A2D499FED2D1A02E000BF30EE410AEB
:102C200010EE103A9342F9DC02E000BF30EE010AE8
:102C300010EE103A8B42F9D880ED050AD0ED071A54
:102C400071EE801A11EE903AC0ED071A934203DD3F
:102C5000DFED1F1AC0ED071A11EE902A8A4203D940
:102C6000DFED1C1AC0ED071A90ED002AD0ED072AFF
:102C7000D0ED061A42EE000A90ED012A70EE611ABC
:102C8000154A42EE220A90ED022A42EE210AC0EDD8
:102C9000080A03E070EEC10AC0ED080A10EE901AAF
:102CA0009142F7DA04E000BF70EE810AC0ED080A35
:102CB000F5EEC00AF1EE10FAF6D380ED060AB0EE9A
:102CC000600A704700003443000034C30000B4437E
:102CD00000003443000034C30000B44313489FEDA8
:102CE000160A9FED131A80ED030A80ED040A80EDA9
:102CF000050A80ED060A80ED070ADFED0E1A80ED69
:102D0000080AF7EE000AC0EC030A243080ED030A3B
:102D100080ED040A80ED050A80ED060A80ED070AC1
:102D200080ED080AC0EC030A70470000E84C002060
:102D30000AD7A33CCDCCCC3D00000000704700007A
:102D4000F0B506462DED048B81B00F46B0EE408AFB
:102D50005A48FFF70DFB10215948FEF7E1FB59488F
:102D60000125B0FBF6F00A24A91E0A2801D20A2088
:102D700002E0642827D96420534B00FB06F2B3FB22
:102D8000F2F2FAB100FB02FCB3FBFCFCB44502D941
:102D9000ACEB060C01E0A6EB0C0C8C4502D26146B4
:102DA0000446154602F1010C00FB0CFCB3FBFCF3DE
:102DB000B34201D99B1B00E0F31A8B4202D21946A1
:102DC0000446551C401E0A28D6DA00269FED3F0A0D
:102DD000DFED3F0AF1EE008A28EE000A80EE209A2D
:102DE00053E09FED3C8A012F02D0022F1FD03EE01E
:102DF00000EE106ADFED380AB8EE400A60EE200AF5
:102E000000EE104AB8EE401A80EE810A30EE090A50
:102E100010EE100AFDF7CDFB41EC100B00F09CFD0D
:102E200051EC100BFDF7D8FB08EE100A1FE000EE86
:102E3000106AF8EE400A00EE104AB8EE401A80EE32
:102E4000810A10EE100AB0F17A5F02DA20EE288AC9
:102E50000DE010EE100AB0F17D5F04DAB0EE008AEA
:102E600000EE688A03E0B0EE688A10EE288ADFED93
:102E70001B0A9FED1B0A1B4908EE200ABCEEC00A84
:102E800010EE100A21F81600761CA642A9D30B48B2
:102E900000210268916202686D1ED562C5600091D2
:102EA0002346104A10210648FEF7CAFA01B003482B
:102EB000BDEC048BBDE8F040FFF71EBA984B002034
:102EC000944A002040420F0000BD0105DB0F49403D
:102ED0000000344300000000DB0FC9400000C8437D
:102EE0000000024424490020F0B506462DED048B75
:102EF00081B00F46B0EE408A5A48FFF739FA0021F8
:102F00005948FEF70DFB59480125B0FBF6F00A249D
:102F1000A91E0A2801D20A2002E0642827D96420C9
:102F2000534B00FB06F2B3FBF2F2FAB100FB02FCDA
:102F3000B3FBFCFCB44502D9ACEB060C01E0A6EBFC
:102F40000C0C8C4502D261460446154602F1010C78
:102F500000FB0CFCB3FBFCF3B34201D99B1B00E06C
:102F6000F31A8B4202D219460446551C401E0A2809
:102F7000D6DA00269FED3F0ADFED3F0AF1EE008A28
:102F800028EE000A80EE209A53E09FED3C8A012F44
:102F900002D0022F1FD03EE000EE106ADFED380AAB
:102FA000B8EE400A60EE200A00EE104AB8EE401A71
:102FB00080EE810A30EE090A10EE100AFDF7F9FAE8
:102FC00041EC100B00F0C8FC51EC100BFDF704FBBA
:102FD00008EE100A1FE000EE106AF8EE400A00EE5C
:102FE000104AB8EE401A80EE810A10EE100AB0F1D5
:102FF0007A5F02DA20EE288A0DE010EE100AB0F1B6
:103000007D5F04DAB0EE008A00EE688A03E0B0EE7D
:10301000688A10EE288ADFED1B0A9FED1B0A1B4908
:1030200008EE200ABCEEC00A10EE100A21F81600C5
:10303000761CA642A9D30B4800210268916202685F
:103040006D1ED562C5602346104A07480091FEF701
:10305000F7F901B00348BDEC048BBDE8F040FFF781
:103060004BB90000084B0020944A002040420F005A
:1030700000BD0105DB0F49400000344300000000A3
:10308000DB0FC9400000C843000002445C48002038
:10309000FEF740BD30B593B030216846FDF7E9F842
:1030A00014210CA8FDF7E5F81D480025016841F042
:1030B00080510160006800F080501190194801684B
:1030C00041F4804101600068022400F480401190C6
:1030D0000120039010200490009406940820CDE96C
:1030E0000750A820CDE9090404200B906846FEF79C
:1030F00097FE08B172B6FEE70CA90F2081E83100F7
:103100004FF4A0500F904FF48050109005210CA860
:10311000FEF79AFD002801D072B6FEE713B030BD6D
:1031200040380240007000400248016841F47001DC
:103130000160704788ED00E0F0B50268274B284D2C
:10314000284E294F294C4FF0804C984209D06045B9
:1031500007D0A84205D0B04203D0B84201D0A04267
:1031600004D122F0700E4A6842EA0E0298421BD047
:10317000604519D0A84217D0B04215D0B84213D03C
:10318000A04211D01A4DA8420ED01A4DA8420BD021
:10319000194DA84208D0194DA84205D0184DA84293
:1031A00002D0184DA84203D122F44075CA682A43C0
:1031B0004D6922F080022A438D68C5620D688562E0
:1031C000984201D0A04201D109690163016841F030
:1031D00004010160012141610260F0BD0000014075
:1031E0000004004000080040000C004000040140C2
:1031F00000400140004401400048014000180040E8
:10320000001C00400020004010B5846842EA032200
:1032100024F47F440A432243826010BD826822F076
:1032200070020A4342F007018160704710B5036ADB
:10323000046A24F001040462846924F0F00444EA7E
:10324000021423F00A020A438461026210BD10B521
:10325000036A046A24F010040462846923F0A00362
:1032600024F4704444EA023243EA011182610162AB
:1032700010BD10B5806B0021C185FFF7FBF810BDB4
:1032800001680C3151E8002F22F4907241E80023CC
:10329000002BF5D10168143151E8002F22F0010212
:1032A00041E80023002BF5D1016B012909D1016808
:1032B0000C3151E8002F22F0100241E80023002BCE
:1032C000F5D1202180F8421000210163704708B534
:1032D00090F84210222901D0022008BD82684FF4E4
:1032E00080539A4201D1016921B1816A9A421BD06F
:1032F0004AB10AE00268816A5268C2F308020A8091
:10330000816A891C08E0026972B10268526802F0A1
:103310007F020A70816A491C8162C18D491E0904BD
:10332000090CC18503D01BE002685268F1E701680F
:10333000CA6822F02002CA600168CA6822F480725A
:10334000CA6001684A6922F001024A61202180F8BE
:10335000421000214163026B012A03D0FFF772FA89
:10336000002008BD016301680C3151E8002F22F0F4
:10337000100241E80023002BF5D101680A68D2064B
:1033800002D50A6849680091818DFFF772F8E7E776
:1033900070B5044600680169E26821F440511143A8
:1033A00001612169A068E26908436169114308432A
:1033B0002168CA6849F20C639A430243CA602068D4
:1033C0004169A26921F4407111434161314920688A
:1033D000884202D03049884202D1FEF7DFFC01E08A
:1033E000FEF7CCFCE2690023192164253226B2F5F0
:1033F000004F626828D0A0FB0101930F9200FCF7F8
:10340000DFFE0146B0FBF5F06FF01802504301EB10
:10341000800006EB0010B0FBF5F000F0F002B1FB0D
:10342000F5F002EB0012B1FBF5F06FF01803584312
:1034300001EB800006EB0010B0FBF5F000F00F0090
:1034400021681044886070BDA0FB010192185B41A7
:10345000FCF7B6FE0146B0FBF5F00201B1FBF5F05A
:103460006FF01803584301EB800006EBC000B0FB7F
:10347000F5F000F0F80002EB4002B1FBF5F0584324
:1034800001EB800006EBC000B0FBF5F000F0070098
:10349000D6E7000000100140001401402DE9F84378
:1034A000984617460D460446089E24E0701C22D01C
:1034B000FEF72AFBA0EB0800B0421AD8CEB1206874
:1034C000C168490717D5802D15D0402D13D001684C
:1034D000C94309070FD401680025406800902046C1
:1034E000FFF7CEFE0820606484F840500120BDE85C
:1034F000F8830320FBE72068006835EA000004D069
:103500000020B842D2D00020F1E70120F9E7000006
:103510000148FEF7B1BF0000E04B0020FEE70000CD
:103520000FB4054B10B503A9044A029801F024F822
:1035300010BC5DF814FB0000F95800084408002096
:1035400003B401984100009850EAC12018BF04203C
:103550004A0D18BF40F0010040F2FF72B2EB515F1C
:1035600008BF40F00200012808BF052002B07047E4
:103570004100080218BF04200A0E18BF40F00100E5
:103580004FF07F4232EA010108BF40F002000128FB
:1035900008BF052070470907090E002804DB00F169
:1035A000E02080F80014704700F00F0000F1E020E8
:1035B00080F8141D7047000010EE100A10B510EED0
:1035C000901A4FF0684202EB40032DED028BB3F1ED
:1035D000654F3CBF02EB4102B2F1654F7CD200BFA8
:1035E000C0F3C753C1F3C7529A1A1B2A09DD10F062
:1035F000004F14BF9FED6E0A9FED6E0ABDEC028B6B
:1036000010BD12F11A0F1BDA11F0004F09D010F0A3
:10361000004F0CBF9FED680A9FED680ABDEC028B5E
:1036200010BD80EE208A18EE100AFFF7A1FF0428D3
:1036300008BF00F017FEB0EE480ABDEC028B10BDCB
:103640004200B2EB410F37D910F0004F19BFDFED48
:103650005C1A9FED5C1ADFED5C1A9FED5C1AB0EE10
:10366000602A0A46F1EE400A80F00041B0EE420ABC
:1036700010460A1A5200B2F1807F34D2484010F04E
:10368000004FDFED532A9FED533A1DBFBEEE002AD7
:1036900071EEE21A31EE431AB6EE002A04BF71EE63
:1036A000A21A31EE031AF0EE402A42EE602A40EEF2
:1036B000020A82EEA02A18E011F0004F04BF9FED2D
:1036C000461AF0EE411AD4D010F0004F1CBFDFEDC7
:1036D000431A9FED431A00E026E004BFDFED411AD4
:1036E0009FED411AC5E780EE202A22EE020ADFEDA7
:1036F0003F0ADFED3F2ABDEC028B40EE202ADFEDD2
:103700003D0A40EE220ADFED3C2A40EE202ADFEDA2
:103710003B0A40EE220A22EE000A00EE201A31EEA9
:10372000020A30EE210A10BD4FF07F42B2EB400F8B
:1037300028BFB2EB410F05D2BDEC028BBDE81040B3
:1037400000F085BD40EA01035B0008BF41F0FF4186
:103750000BD0B2EB400F08BFB2EB410F08D120F005
:10376000804000EE100A21F0804100EE901A37E709
:10377000B2EB400F12BF5FEA410240F0FF4001F0A0
:1037800000413FF42DAF4A0092EA40033FF528AFD5
:10379000002AACBF9FED1A1A9FED1A1A20EE010AFB
:1037A00060EE810A10EE100A10EE901A18E7000081
:1037B000DB0FC9BFDB0FC93FDB0F4940DB0F49C03F
:1037C0000000C9BF22AAFDB90000C93F22AAFD39E5
:1037D0000060ED3EC30ACE3700000000000049C083
:1037E00022AA7DBA0000494022AA7D3A2DAD65BDCE
:1037F0008FB8D53D0FB511BE61C84C3EA8AAAABE70
:103800000000804F0000802F10EE101A08B5444AC7
:103810006846B2EB410F28D94FF0E640B0EB410FBC
:1038200094BF00204FF0FF3000900098002861DB2B
:1038300060EE000A10F0010F45D010F0020FDFED2E
:10384000391A9FED391A00EEE11ADFED381A40EE11
:10385000811A21EEA01AF0EE400A40EE010A08BFDC
:10386000F1EE600AB0EE600A08BD314B21F0004273
:1038700093423CD911F0004FDFED2E0A20EE201AC2
:10388000DFED2D0A19BF31EE601A71EE200A31EE1C
:10389000201A71EE600ABDEEE01A11EE100A9FEDDB
:1038A000271A00F0030000EEC10A9FED251A0090D0
:1038B00000EEC10A9FED231A00EEC10A9FED221A05
:1038C00000EEC10AB1E79FED211A9FED210A10F029
:1038D000020F00EE810A9FED1F1A00EE801AB7EE6C
:1038E000000A00EE810A18BFB1EE400A08BD00F0E0
:1038F000C1FC9AE710EE100A4000B0F17F4F3CBFC8
:10390000B7EE000A08BD07D14FF0010000F06CFDD2
:10391000BDE8084000F09EBCBDE8084000F094BC43
:10392000B61F927E336D4C39DA82083CA0AA2ABEBB
:10393000490E494683F9223F0000004B0000C93F71
:1039400000A0FD390020A2331A61342CB93AB2BA72
:10395000CA9F2A3DDDFFFFBE10B52F499FED2C1BEE
:103960002DED020B84B0059820F000408842DCBFAA
:1039700000209DED040B32DD2849884209D10498CE
:1039800040B94FF0010000F02FFD00F03DFC06B003
:1039900010BD05DB9DED040B00F02AFC06B010BD48
:1039A00068469DED040B00F03BF810F0030011D0C9
:1039B000012818D09DED021B9DED000B02281AD0A6
:1039C00000F04AFA51EC100B81F0004106B041ECD6
:1039D000100B10BD9DED021B9DED000B012000F0B2
:1039E0006FFB06B010BD9DED021B9DED000B00F0BE
:1039F00033FA06B010BD012000F062FB51EC100B51
:103A000081F0004106B041EC100B10BD0000000039
:103A10000000000000000000FB21E93F0000F07FF3
:103A20002DE9F14F04462DED020B2DED088B8AB0E8
:103A30009FEDE70B80ED020B139EE74826F0004553
:103A400085420ADC9DED120B002084ED000B0AB0CC
:103A5000BDEC088B03B0BDE8F08FE0489FEDE0AB14
:103A60009FEDE1BBA84247DDE14F9FEDE39B9FED5A
:103A7000E48B9DED120B53EC1A2B51EC100B002E26
:103A80001CDDFCF7A2FC41EC100BBD4208D053EC4E
:103A90001B2B51EC100BFCF798FCC4E900010BE068
:103AA00053EC192B51EC100BFCF78FFC53EC182B3B
:103AB000FCF78BFCC4E900010120C8E7FCF7E4FB3C
:103AC00041EC100BBD4208D053EC1B2B51EC100BFA
:103AD000FCF7DAFBC4E900010BE053EC192B51ECC5
:103AE000100BFCF7D1FB53EC182BFCF7CDFBC4E912
:103AF00000014FF0FF30AAE7C348A84279DB9DEDF3
:103B0000120B51EC100B01F0B3FE41EC180B9FEDC2
:103B1000C00B53EC102BFCF75EFC9FEDBF1B53EC6E
:103B2000112BFCF7B1FBFCF781FE0746FCF72AFEE0
:103B300041EC190B53EC1A2BFCF74DFC53EC182BF2
:103B4000FCF746FC41EC180B53EC1B2B51EC190B0A
:103B5000FCF741FCDFF8C8A241EC100B4FEA155806
:103B60000125FA4453EC102B51EC180BFCF72DFCFB
:103B7000032DC4E900013DD0C1F30A5005EB451106
:103B8000A8EB00001139814234DA0AEB051BB0EED4
:103B900048AA9BED000BF0EE68AA53EC102B51ECF9
:103BA000190BFCF718FC41EC1B0B51EC1A0B53ECF6
:103BB0001B2BFCF70AFC41EC180B51EC1A0B53ECD5
:103BC000182BFCF702FC53EC1B2BFCF7FEFB9BEDC8
:103BD000020B41EC1A0B53EC102B51EC190BFCF7B8
:103BE000FAFB53EC1A2BFCF7F0FB41EC100B6D1CAD
:103BF000B8E70EE0002EA8BF3846BFF628AF94ED18
:103C0000000B51EC100B81F00041C4E90001784237
:103C10001DE7C6F3130040F4801EC6F30A50A0F25D
:103C2000F530471100F01F05C5F12000DDF848B060
:103C300008900020069007900520EC467949002D59
:103C400007EB0002794408BF51F8221009D051F85F
:103C5000223001EB8201AB404A68089922FA01F157
:103C60001943A1FB0E26A1FB0B131A449A4234BF41
:103C70000123002303EB06080CEB8003D3E901A624
:103C80000E448E4234BF0121002192448A4411B176
:103C9000924502D903E0924501D2012100E00021C2
:103CA000C3E901A641444CF82010011EA0F1010017
:103CB000C4DC029800F10050850F0298DDE903672B
:103CC0008000DDF81480FCF75DFD41EC1A0B3046F6
:103CD000FCF762FC9FED541B53EC112BFCF77BFBB4
:103CE00041EC1B0B3846FCF757FC9FED511B53EC86
:103CF000112BFCF770FB41EC180B4046FCF74CFC19
:103D00009FED4D1B53EC112BFCF765FB41EC190BA0
:103D100051EC180B53EC192BFCF7B6FA53EC1B2B98
:103D2000FCF7B2FA53EC1A2BFCF7AEFACDE9080116
:103D3000002008909DED080B53EC1A2B51EC100B52
:103D4000FCF743FB53EC1B2BFCF73FFB53EC182B0E
:103D5000FCF73BFB53EC192BFCF73AFB9FED381BB0
:103D600053EC112BFCF737FB9FED370B41EC180B95
:103D700053EC102B9DED080B51EC100BFCF72BFBBB
:103D800053EC182BFCF780FA9FED310B41EC180B2C
:103D900053EC102B9DED080B51EC100BFCF71BFBAB
:103DA00053EC182BFCF770FA41EC100B139810F041
:103DB000004F06D06D4251EC100B81F0004141ECF8
:103DC000100B284684ED000B41E6000000000000C7
:103DD0000000000000000000FB21E93F7CD9024008
:103DE00000004054FB21F93F3163621A61B4D03DB9
:103DF000FB21F93F000000000000601A61B4D03DD3
:103E00007370032E8A19A33BFB2139410000000087
:103E100083C8C96D305FE43F000000000000E03F50
:103E20004A53000098520000000000000000103EBD
:103E3000000000000000103C000000000000103AEC
:103E4000182D4454FB21F93D3326A611460B113C95
:103E500000000054FB21F93D10B52DED040B2DEDB4
:103E6000088B82B0B0EE419AF0EE619A0B9820F088
:103E700000449FED4BABB4F1795F11DA9DED0A0B75
:103E800051EC100BFCF7D2FC002801BFB0EE4A0A3F
:103E9000F0EE6A0A02B0BDEC088B04BF04B010BD9E
:103EA0009DED0A0B53EC102B51EC100BFCF793FA21
:103EB00041EC180B3C480621B0EE480AF0EE680AC7
:103EC000784400F081F853EC182B51EC100BFCF700
:103ED00082FA9DED0A0B41EC1B0B53EC192B51ECB4
:103EE000100BFCF778FA41EC190B53EC1B2B51EC3F
:103EF000180BFCF770FA53EC192BFCF766FA9FEDE0
:103F00002C0B41EC190B53EC102B51EC180BFCF75C
:103F100062FA41EC100B2848844210DA53EC192B5A
:103F200051EC100BFCF751FA53EC1A2BFCF750FA3A
:103F300041EC100B02B0BDEC088B04B010BD1F4863
:103F4000A042BCBF9FED1E1B8DED001B06DBA4F540
:103F500000100190002000909DED001B51EC100B13
:103F600053EC112BFCF731FA9DED000B41EC180BD3
:103F700053EC102B51EC1A0BFCF727FA41EC1A0BFF
:103F800053EC192B51EC180BFCF71FFA53EC1A2BBE
:103F9000FCF71EFA41EC100BCCE70000000000001B
:103FA000000000000000F03FBC4F000000000000D7
:103FB000000000000000E03F3333D33F0000E93F42
:103FC000000000000000D23F70B504462DED028BCA
:103FD0004D1E00EBC500B0EE408AF0EE608A90ED19
:103FE000000B35F0060017D053EC182B51EC100BDA
:103FF000FCF7F1F941EC100B6D1E04EBC50090EDE0
:10400000001B51EC100B53EC112BFCF73DF941EC6C
:10401000100B35F00600E7D1022D36D0042D1CD050
:10402000062D1CBFBDEC028B70BD53EC182B51EC60
:10403000100BFCF7D0F994ED0A1B53EC112BFCF795
:1040400023F953EC182BFCF7C6F994ED081B53EC3D
:10405000112BFCF719F941EC100B53EC182B51EC18
:10406000100BFCF7B8F994ED061B53EC112BFCF781
:104070000BF953EC182BFCF7AEF994ED040B53EC51
:10408000102BFCF701F941EC100B53EC182B51EC01
:10409000100BFCF7A0F994ED021B53EC112BFCF76D
:1040A000F3F853EC182BFCF796F994ED001B53EC46
:1040B000112BFCF7E9F8BDEC028B41EC100B70BD45
:1040C00031B504462DED040B2DED0A8BB0EE41BA4F
:1040D000F0EE61BA0B989DED0A0B20F00040B0F1B4
:1040E000795F0DDA51EC100BFFF72AFA042808BFAC
:1040F00000F09AF89DED0A0BBDEC0A8B05B030BDBF
:1041000053EC102B51EC100BFCF765F941EC180B3C
:104110009DED0A0B53EC182B51EC100BFCF75BF9DF
:1041200041EC190B2C48B0EE480AF0EE680A052164
:104130007844FFF749FF9FED2ACBB0EE40AAF0EE9E
:1041400060AA9CB353EC1C2B51EC190BFCF743F900
:1041500041EC1C0B53EC1A2B51EC190BFCF73BF9FF
:104160009FED210B41EC190B53EC102B51EC1B0B69
:10417000FCF731F953EC192BFCF727F953EC182B0A
:10418000FCF729F953EC1B2BFCF71FF953EC1C2B04
:10419000FCF71BF99DED0A1B53EC112BFCF718F9EA
:1041A000BDEC0A8B05B041EC100B30BDFFE753ECC2
:1041B0001A2B51EC180BFCF70EF953EC1C2BFCF7E7
:1041C00063F853EC192BFCF706F99DED0A1B53EC31
:1041D000112BFCF759F8E3E7644E000000000000E3
:1041E000495555555555C5BF000000000000E03F3A
:1041F00010B553EC102B51EC100BFCF745F841ECCB
:10420000100B10BD000000009FED050B10B553EC26
:10421000102B51EC100BFCF750F941EC100B10BDBA
:1042200000000000000000009FED050B10B553ECEE
:10423000102B51EC100BFCF7CEF841EC100B10BD1D
:10424000000000000000001030EE000A704730EE61
:10425000200A7047DFED020A80EEA00A70470000D6
:10426000000000009FED020A20EE000A70470000E7
:10427000000000102DE9F0014FF07F42B2EB410F3A
:104280009FBF4FF0FF310160BDE8F00170474FF074
:10429000004242EA0123C1F3C752783A551112F0A5
:1042A0001F0C434CCCF120067C44C1F3C752A2F151
:1042B00078024FEA621204EB820254F8254008BFEC
:1042C000D2E9015612D0556804FA0CF425FA06F723
:1042D0003C43976805FA0CF527FA06F8D26807FA06
:1042E0000CFCF24045EA08054CEA0206A4FB034C2C
:1042F000A5FB0352A6FB03631D449D4234BF012668
:1043000000261319334416B1934202D903E09342B5
:1043100001D2012200E00022624402F1200C920648
:10432000DC0C42EA443200EE102A5B03DFED210A86
:10433000F8EEC01A00EE103A4FEA9C1C11F0004F44
:10434000B8EE400AC0F800C020EE201A00EE105A65
:10435000DFED190AB8EE400A20EE200A71EE810A5C
:1043600070EE800A10EE902A02F500626FF30B02E5
:1043700000EE902A70EEE11A31EEC11ADFED101A4C
:1043800030EE411A9FED0D0A20EE800A01EE210A5F
:104390009FED0C1A00EE810A04BFBDE8F0017047E2
:1043A000CCF180510160BDE8F001B1EE400A7047E8
:1043B000CC4C0000000000360000802C22AAFD2911
:1043C000DB0FC92F0000C92F02E008C8121F08C167
:1043D000002AFAD170477047002001E001C1121F86
:1043E000002AFBD1704700000149086070470000B7
:1043F000580800202DE9FF5F82B00021DDE904307C
:10440000020DDDF840B0034318D044F61050A2F27C
:10441000FF3242431514119801281FD0A5EB0B0061
:10442000401C5FEA000A4FF000064E4FDFF838915B
:10443000B046504615D5CAF1000413E01198012486
:104440004AA3012801D16FEA0B010298119AC0E931
:104450000031C0E9024206B0BDE8F09FCBF1000098
:10446000DFE704460021404A491842EB0450CDE9F9
:10447000001012E0E00707D032463B46404649466E
:10448000FBF7A9FF8046894632463B46104619464F
:10449000FBF7A1FF06460F466410002CEAD1DDE9C8
:1044A0000401DDE90023BAF1000F06DAFBF793FF00
:1044B00042464B46FBF78FFF05E0FBF7FEFF424607
:1044C0004B46FBF7FAFF04460E460022284BFCF74A
:1044D00083F903D84FF0FF30014607E00022254B57
:1044E00020463146FBF7D0FEFCF75DF9102409E0C9
:1044F000002C0ADB0A220023FBF762FE039B30320A
:104500001A55641E50EA0102F2D1641C039AC4F1E8
:1045100011031444119A012A03D0012208430DD13A
:104520000AE0084304D000204FF0110B119072E70D
:10453000A3EB0B056D1E0DE05B4504DD4FF00002A3
:1045400005F1010504E003DA4FF00002A5F10105D1
:10455000002AECD002981199C0E90231C0E9004567
:1045600079E70000000014400000F03F3000000038
:104570000000F0430000E03F2DE9FF4F95B09B465F
:104580008946064600250FE2252877D100242746D4
:10459000F84A0121059400E0044316F8013F203B4E
:1045A00001FA03F01042F7D130782A2811D06FF0C9
:1045B0002F033078A0F13002092A16D8059A44F06A
:1045C000020402EB820203EB42021044761C0590C7
:1045D000EFE759F8042B0592002A03DA504244F41D
:1045E0000054059044F00204761C30782E2816D131
:1045F00016F8010F44F004042A280DD06FF02F02A2
:104600003078A0F13003092B09D807EB870302EBC0
:104610004303C718761CF3E759F8047B761C3078FF
:104620006C280FD006DC4C2817D068280DD06A28DB
:1046300014D104E0742810D07A280FD10DE044F48E
:1046400000140AE044F4801401E044F44014727849
:10465000824202D104F58014761C761C30786628DC
:104660000BD013DC582877D009DC002875D04528FA
:10467000F6D04628F4D047281AD19DE118E06328E7
:1046800035D0642879D0652812D195E1702873D08F
:1046900008DC6728F1D069286FD06E280DD06F280C
:1046A00006D1B5E073282CD0752875D0782874D041
:1046B0005A46179990476D1C75E1C4F302500228C1
:1046C00009D003280DD0D9F8001004280DD00D60B2
:1046D00009F1040967E1D9F80010EA17C1E90052AD
:1046E000F6E7D9F800100D80F2E70D70F0E719F841
:1046F000041B8DF8001000208DF80100EA4601200F
:1047000003E059F804AB4FF0FF3061074FF00001B0
:1047100002D40DE008F101018846B9420FDA804564
:10472000F8DB1AF808100029F4D108E008F10101BB
:1047300088468142FADB1AF808100029F6D105985C
:104740005B46A0EB080721463846179A00F094FA1A
:10475000284400EB080507E04DE029E10DE01AF8D8
:10476000010B5A4617999047B8F10108F7D25B46FA
:1047700021463846179A13E142E00A220092C4F318
:1047800002524FF0000A022A08D059F804CB032A3B
:104790004FEAEC710AD00DE029E02AE009F10701A7
:1047A00021F00702F2E802C1914609E00FFA8CFC01
:1047B0004FEAEC71042A03D14FFA8CFC4FEAEC71FA
:1047C000002907DA0A460021DCF1000C61EB020146
:1047D0002D2202E0220504D52B228DF8042001228F
:1047E00003E0E20701D02022F7E7904659E00A21D2
:1047F00002E010220DE010214FF0000A00910BE0C2
:1048000010224FF0000A44F004040827009203E04D
:1048100008224FF0000A0092C4F30252022A05D087
:1048200059F804CB0021032A08D009E009F1070157
:1048300021F00702F2E802C1914605E01FFA8CFC64
:10484000042A01D10CF0FF0C4FF00008220728D5F4
:10485000702806D0009B83F0100353EA0A0305D0AA
:104860000EE040228DF80420012208E05CEA0102FB
:1048700006D030228DF804208DF8050002229046E3
:10488000009B83F0080353EA0A030AD15CEA0102A1
:1048900001D1620705D530228DF804204FF00108C0
:1048A0007F1E582804D034A003900EA802900DE07B
:1048B00036A0F9E753466046009AFBF781FC844630
:1048C0000398825C0298401E029002705CEA01002C
:1048D000F0D1029806A9081A00F1200A600702D553
:1048E00024F4803400E00127574502DDA7EB0A00DD
:1048F00000E0002000EB0A01009005984144401AB6
:104900000590E00306D45B462146179A059800F00F
:10491000B3F90544002706E001A85A46C05D17997F
:1049200090476D1C7F1C4745F6DBE0030CD55B46CA
:104930002146179A059800F09FF9054404E03020BD
:104940005A46179990476D1C0099481E00900029FF
:10495000F5DC08E0029802995A460078491C029159
:10496000179990476D1CBAF10001AAF1010AF1DC18
:1049700065E1000009280100303132333435363723
:10498000383961626364656600000000303132339B
:10499000343536373839414243444546000000003B
:1049A00000F058F90544761C307800287FF4ECAD0F
:1049B00019B02846BDE8F08F620700D4062709F138
:1049C000070222F0070CFCE80223E14603F000484E
:1049D0005FEA080C02D00FF2702C0DE05FEA045C75
:1049E00002D50FF2682C07E05FEAC47C02D00FF218
:1049F000602C01E0AFF2700C4FF0FF3823F0004361
:104A0000CDF850C065280CD006DC452809D04628D2
:104A10001DD047283DD13DE0662818D067287ED1BB
:104A200038E00021112F01DB112000E0781CCDE9D6
:104A3000000106A90EA8FFF7DDFCDDE90F010E9AC3
:104A400003910021009207F1010A04914DE04FF01B
:104A500000400097CDE9011006A90EA8FFF7CAFC97
:104A6000DDE90F0203920E9B11990022DDF80CA0E4
:104A70000093049211B9791C00EB010AB7EB0A000C
:104A800004D4C0F1FF3007F1010A0490AAEB07003B
:104A9000019044E0012F00DA01270021112F01DDF0
:104AA000112000E03846CDE9000106A90EA8FFF765
:104AB000A1FCDDE90F010E9A0391002104910092FF
:104AC000BA4621070CD40399514500DA8A46BAF157
:104AD000010F05DD009AAAF10101515C302908D0CF
:104AE000B84202DA10F1040F06DA0121CDE9011013
:104AF00015E0AAF10101E9E7002805DC0499014469
:104B00000491AAEB000102E0411C514500DD8A46F8
:104B10000499401A401C01904FF000400290200779
:104B200004D40198504501DBCDF8048000208DF8B5
:104B30004F0002980DF14F07B0F1004F25D02B2008
:104B40000E9002984FF0020800280CDA40420290C2
:104B50002D200E9007E00A210298FBF759FD303115
:104B6000029007F8011DB8F10001A8F10108F2DC7C
:104B700002980028EFD1791E0E980870307800F066
:104B8000200040F0450007F8020D12A8C01B00F1FC
:104B900007081498007800B1012000EB0A01019881
:104BA00001EBE07105984144401A401E0590E00376
:104BB00006D45B462146179A059800F05DF8054437
:104BC0001498007818B15A46179990476D1CE00365
:104BD00024D55B462146179A059800F04DF8054408
:104BE0001CE00498002807DBDDE90301884203DDAF
:104BF0000098405C179901E0179930205A46904779
:104C0000049805F10105401C04900198401E019094
:104C100004D12E205A46179990476D1CBAF1000115
:104C2000AAF1010ADDDC05E017F8010B5A461799D5
:104C300090476D1CB8F10001A8F10108F4DC5B4657
:104C40002146179A0598ABE62D0000002B000000C6
:104C5000200000002DE9F041044600251E461746BD
:104C6000880404D405E039462020B0476D1C641E3A
:104C7000F9D52846BDE8F0812DE9F041044600252C
:104C80001E469046C80301D5302700E0202788043F
:104C900004D505E041463846B0476D1C641EF9D581
:104CA0002846BDE8F0810000F0B5002318E000BF01
:104CB00002EB430532F813406D88A408AD0850F8A4
:104CC000246050F8257040F8247040F8256000EB0F
:104CD000840400EB850566686F6867609B1C6E60E6
:104CE0008B42E5D3F0BD2DE9F04105889846174683
:104CF0000C460646012A0CD1201D002107E090ED4C
:104D0000000AB1EE400A80ED000A0830491CA942B1
:104D1000F5D3B5F5807F1BD008DC102D13D0202DE6
:104D200016D0402D19D0802D1DD10CE0B5F5007F97
:104D300013D0B5F5806F06D0B5F5006F08D0B5F586
:104D4000805F10D109E02146304600F032F80AE0D9
:104D50002146304600F0F1F805E0294601232046BF
:104D6000726800F023FBB8F1000F04D0B18920462F
:104D7000B268FFF799FF012F19D100EE105AB7EE74
:104D8000001A0020F8EE400A81EE200A0DE0D4ED72
:104D9000000A401C60EE800AC4ED000AD4ED010A4E
:104DA00060EEC00AC4ED010A0834A842EFD3BDE8A2
:104DB000F0812DE9F04105462DED028B8C460288ED
:104DC0006E6801EB82005408804601EB840200EB20
:104DD0008403A7087CD091ED003AD0ED002A91ED34
:104DE000015A90ED014A33EE228AD1ED027A91ED1B
:104DF000031A90ED022AD0ED033A92ED007AD2ED3B
:104E0000016AD2ED021AD2ED034AD3ED000A93ED06
:104E1000010AD3ED025A93ED036A81ED008A35EE63
:104E2000048A33EE623A75EE442A81ED018A37EE48
:104E3000828A31EE635A37EEC24A81ED028A31EE40
:104E4000238A37EE201A30EEC72A81ED038A82EDDD
:104E5000001A36EE801A76EE643A82ED011A31EECF
:104E6000A51A75EEE11A82ED021A34EE861A82ED69
:104E7000031A30EE661A96ED000AD6ED010A63EECB
:104E8000004A62EEA05A62EE802A23EE203A74EEC7
:104E9000A54A72EEC32AC0ED004A22EE203AC0EDC8
:104EA000012A61EE002A61EE200A22EE000A33EEAA
:104EB000621A30EE800A83ED001A83ED010A96ED46
:104EC000020AD6ED030A24EE002A25EE201A00E09D
:104ED00023E065EE002A24EE203A32EE011A23EE9A
:104EE000802A21EE800A80ED021A32EEC31A1031B8
:104EF000103280ED031A21EEA01A63EEA00A1030E2
:104F0000103631EE421A30EE800A83ED021A83ED3C
:104F1000030A10337F1E7FF45EAF214602236046F2
:104F20006A6800F043FA6A682146BDEC028B40468D
:104F3000BDE8F041022300F039BA2DE9F34F2DED21
:104F4000048B87B00B9800884FEA500801EB88006B
:104F500000EB880303EB8804CDE90043DDF82CC0A7
:104F6000221F02EB8807CDE902014FEA5808DCF85E
:104F700004A0CDF810804FF00408CDF818804FF051
:104F80000608CDF81480D1ED000A93ED000AD0EDAB
:104F9000013A94ED013A30EE802A70EEC01AD1ED5C
:104FA000010A93ED010A061F1D1F70EE802A30EEE4
:104FB000C01A33EEA10AD4ED000A71EEE31A0AF129
:104FC000080B70EE435A90ED000A71EE831A0AF155
:104FD000100931EE404A72EE404A30EE011A30EECE
:104FE000020A34EE204A34EEE05A31EE601A30EE16
:104FF000200A72EEE34A0AF1180A81ED000A90EDE8
:10500000010AD4ED010A74EEC34A30EE220A30EEF2
:10501000200A81ED010AC0ED005A80ED014A83EDBE
:10502000005AC3ED014AC4ED001A84ED011ADDF8FF
:1050300010800830A8F10208083108334FEA580CF4
:105040000834D1ED000A93ED000A5FEA0C0E70EE11
:10505000804A70EEC01AD1ED010A93ED010A7ED0AC
:1050600090ED015A30EE802A30EEC01A35EE210A5A
:10507000D4ED013AD0ED000A71EEC51A70EE635A14
:1050800071EE602A94ED000A30EE811A71EEA31AD7
:1050900032EE804A74EEE02A70EEA40A31EE401A35
:1050A00032EEC03A30EE800A72EE452A81ED000AF7
:1050B00090ED010AD4ED010A72EEE32A30EE020A05
:1050C00030EE200A81ED010A56ED010A12ED010AC7
:1050D00015ED015A57ED017A70EE808A30EEC02A44
:1050E000D6ED000A92ED000A95ED007A30EE808A46
:1050F00030EEC00AD7ED000A70EE453A37EE609AFE
:1051000073EEA76A78EEC53A37EEC55A39EE026AF1
:1051100039EE422A73EEE74A35EE405A37EE080A76
:1051200078EE473A30EE200A73EEE03A86ED000A58
:1051300015ED010A57ED010A30EE280A30EE200A7B
:1051400006ED010A9BED000ADBED010A0BF1080BED
:1051500025EE807A64EE207A24EE008A00E074E086
:1051600025EEA04A77EE275A0831083EC0ED005AD6
:1051700038EE444A66EEA05A66EE200A80ED014AF7
:1051800026EE004A26EE800A0830AEF1010C35EE1C
:10519000C44A30EE800A85ED004A05ED010AD9EDDA
:1051A000000A99ED010ADDF8188023EE204A62EE2C
:1051B000805A62EEA02A23EE003A09EB880934EE09
:1051C000254A083D72EEC32A83ED004A23EEE03AF9
:1051D000C3ED012A64EE802A64EEA00A23EE800A61
:1051E000083373EE622A30EE600AC2ED002A02ED47
:1051F000010ADAED000A9AED010ADDF8148021EEC9
:10520000A03A61EE002A61EE203A21EE801A083AB7
:1052100073EE221A0AEB880A33EEC11AC4ED001AA3
:1052200062EE201A84ED011A25EE001A22EE000A21
:1052300065EE200A083431EE611A30EE200A87ED5F
:10524000001A07ED010A083FFBE630EE805A90EDA8
:10525000011A70EEC05A94ED012A31EE210AD0ED08
:10526000000A35EE414A31EEC11A70EE422A94ED41
:10527000000A35EEE03A74EEE03A70EEA51A70EEF0
:10528000A40A33EE003A73EEC03A71EEC01A30EE63
:10529000800A34EE424A31EE021A81ED000A90EDA6
:1052A000010AD4ED010A30EE050A30EE200A81ED44
:1052B000010A9BEC020A62EE804A23EE202A23EECA
:1052C000000A62EEA00A34EE822A30EE600A80ED17
:1052D000002A80ED010AD9ED000A99ED010A23EEBA
:1052E000A02A64EE002A64EE200A23EE800A32EE41
:1052F000222A30EEC00A83ED002A83ED010A04233E
:105300009AEC020A21EE002A61EEA02A21EE800A20
:1053100061EE200A32EE221A30EE600A84ED001AA5
:1053200084ED010A0B984268DDE9030100F03EF8C4
:105330000B98042304994268029800F037F80B9800
:10534000042304994268019800F030F80B980499FE
:1053500004234268009807B0BDEC048B02B0BDE89E
:10536000F04F00F023B800009FED0F1A18E000BFC7
:1053700090ED000AD0ED010A0B4620EE000A091D4F
:10538000083000EEA00AB5EEC00AF1EE10FA04DB18
:10539000F1EEC00AC3ED000A01E083ED001A521ECF
:1053A000002AE5D170470000000000002DE9FF4F02
:1053B0002DED108B84B09FEDFE0A15990291C9085E
:1053C00000235E18771807EB010E0EEB010404EBC7
:1053D000010C0CEB010808EB010900EBC305CDF84B
:1053E000009000EBC40495ED001AD4ED000A00EB28
:1053F000C60B00EBCC0671EE201A31EE604A9BED35
:10540000001AD6ED000A00EBC70A00EBC80831EE1F
:10541000202A71EE604ADDF80090DAED000A98ED7E
:10542000001A00EBCE0700EBC90CD7ED003ADCED1B
:10543000002A30EE813A30EEC11A73EEA20A33EE42
:10544000E25A71EEC32A31EE833A72EE601A72EEBE
:10545000200A33EE202A73EE600A85ED002AC4ED9F
:10546000000A95ED013AD4ED010ADBED013ADAEDDF
:10547000015A33EE202A33EE603AD6ED010AD7ED19
:10548000017A73EEA06A73EEE00AD8ED013A35EEC8
:10549000A37A75EEE33ADCED015A37EEA56A77EEB2
:1054A000E55A72EE477A32EE077A36EEC62A36EEC3
:1054B000866A77EE066A37EE466AC5ED016A84EDC4
:1054C000016A32EE826A32EEC22A8AED006A88ED03
:1054D000002A37EEE12A77EEA11A8AED012AC8EDFB
:1054E000011A74EEC51A21EE802A74EE851A74EE44
:1054F000424A61EE802A70EEE51A70EEA50A34EE9B
:10550000022A61EE801A20EE805A71EE620A31EEB4
:10551000221A73EE612A73EE211A33EEC53A73EE46
:10552000853A32EE234A32EE632A8BED004A8CED47
:10553000002A34EE832A86ED002A34EEC32A87ED52
:10554000002A31EEC12A31EE811A8BED012A8CED51
:10555000011A32EEE01A72EEA00A86ED011AC7EDCA
:10556000010A029C2344159CA342FFF42AAF082998
:105570007ED30023019301230093179C019B2344B6
:1055800001939E004FEA430CF5180CEB0307EC184F
:105590002344DDF8048002EBC30302EBC80802EBEE
:1055A000CC0C02EBC70702EBC60602EBC50502EB0B
:1055B000C40493ED009A93ED01AAD8ED00DA9CEDB6
:1055C00000DAD7ED00CA96ED00CAD5ED00BA94ED29
:1055D00000BAD8ED018A9CED018AD7ED01AAD6ED7B
:1055E000017A95ED017AD4ED016A009B5D186E1881
:1055F00006EB010CCDF80CC08C440CEB010700EB62
:10560000C30400EBCC0A94ED001ADAED000A00EBBB
:10561000C50E00EBC70B9EED002ADBED001A71EE04
:10562000203A07EB010831EE601A72EE210A00EB16
:10563000C60500EBC80772EE611AD5ED002A97ED9A
:10564000002ADDF80CC008EB010972EE824A00EB7B
:10565000CC0600EBC90832EEC22A96ED003AD8ED2E
:10566000002A33EE224A73EE622A33EEE43A00E077
:10567000F9E070EEC45A73EEA43A70EE840A33EE89
:10568000A04A33EEE0EA84ED004AD4ED013ADAEDC7
:10569000010A9EED014AD5ED014A33EEA0FA73EE00
:1056A000E03ADBED010AD6ED01EA98ED015A74EE1D
:1056B000209A34EE604AD7ED010A34EEA06A74EE07
:1056C000E04A7EEE850A3EEEC55A7FEE46EA3FEEA0
:1056D000066A39EEE0FA79EEA09A73EE0F0A33EE1D
:1056E0004F3A36EE29FA76EE699A3EEEE56A84ED97
:1056F00001FA7EEEA55A6CEE0EEA27EEA9FA6CEEE0
:10570000299A27EE8EEA7EEE8FEA79EECE9ACAEDDE
:1057100000EA28EE06EACAED019A6DEE209A2DEE17
:10572000066A68EE200A79EE8E9A76EE600AC5ED7A
:10573000009A2BEE036A66EEA59AC5ED010A6BEEA0
:10574000255A66EE830A36EE293A75EEE00A87EDB1
:10575000003A34EE053AC7ED010A71EEE20A71EE45
:10576000A21A74EE452A23EE004A60EE800A61EE2A
:10577000801A62EE802A31EE603A71EE200A32EE33
:10578000611A72EE211A33EEE22A73EEA22A74EE47
:10579000C43A74EE844A30EEA44A70EEE40A73EE22
:1057A000234A33EE633A72EEE13A72EEA12A01E047
:1057B000F304353F72EE411A32EE011A2DEE842ABF
:1057C00028EEA35A6DEEA33A28EE844A32EE052A5B
:1057D0008EED002A33EEC42A6AEE223A69EE222ABE
:1057E0008EED012A29EE202A6AEE200A32EE232AC3
:1057F00072EEE00A67EE242A88ED002AC8ED010A5D
:105800006BEEA40A27EE212A6BEEA11A70EE820A33
:105810002AEE832ACBED000A71EEE20A6AEE811AC3
:105820002CEE811ACBED010A6CEE830A70EEA10A10
:10583000C6ED000A71EE420AC6ED010A029C23443D
:10584000159CA342FFF4D2AE009B5B1C00938B42DD
:10585000FFF493AE179B4FF6FF7404EAC30317934C
:1058600007293FF6ABAD04B0BDEC108BBDE8FF8F50
:1058700082B0CDE9000121F0004001909DED000BC8
:1058800002B051EC100B704710B50024134A144BB2
:10589000132000BF02EB800191ED000A51ED010AD7
:1058A000B4EEE00AF1EE10FA0BDDD1ED010AB4EE30
:1058B000E00AF1EE10FA04DD10EE101A994200DD54
:1058C000641C401C6528E5DD214606A0FDF728FE86
:1058D000012C01D0022010BD012010BD5C28002049
:1058E0000050C347776176655F666C6167203D2035
:1058F00025640D0A0000000013B502230122694649
:105900000248FCF7A0FF00981CBD0000E04B0020FF
:1059100086B0FCF707F9FDF7BDFBFDF76DF8FDF765
:1059200035F8FCF7E3FFFDF713F8FDF7B5F8FDF7E1
:10593000E5F8FDF715F9FDF745F90122042169485D
:10594000FCF7DCF8012220216748FCF7D7F867A0B4
:10595000FDF7E6FD6748FCF7CFFC4FF4806266492F
:105960006648FBF7F9FBFDF7B9F9634CDFF890B136
:10597000343C0025257065702A4604215948FCF7FF
:10598000BDF801206061E5602561A0615948FCF720
:10599000EFFC5A48FBF78CFCFBF7E4F9FFF774FFC8
:1059A000C0B2607000F086F960694FF47A71074602
:1059B0004843E061A1694FF47A70484320625BF884
:1059C00027000BEB8101606291ED000A84ED0A0A69
:1059D000FAF7EFFD05460E466068FAF7EAFD0A465B
:1059E0008DE865003A4647A0E168FDF799FDA06A99
:1059F000FAF7DFFD05460E46A068FAF7DAFD0A461B
:105A00008DE865004CA0A2692169FDF789FDD4ED00
:105A10000B0A94ED090A5548FDF7F4F884ED0B0ADA
:105A2000D4ED0C0A94ED0A0A5148FDF7EBF884ED29
:105A30000C0A217B94ED0B0AE069FDF755FA217CF5
:105A400094ED0C0A206AFDF77BF94AA0FDF768FD8A
:105A50004CA0FDF765FD454DE869FAF7AAFD07463C
:105A600088466869FAF7A5FD81468A46E06AFAF732
:105A7000A0FD05460E46606AFAF79BFD8DE86006BC
:105A800041EC100BCDE9047853EC102B4348FDF7A3
:105A900047FD374DE869FAF78CFD07468846686987
:105AA000FAF787FD05460E46206BFAF782FD814620
:105AB0008A46A06AFAF77DFD41EC100B02A953EC6F
:105AC000102B81E8E001CDE9009A3548FDF728FD6B
:105AD0000848FCF711FC4FF4806207490748FBF7C0
